{
  "contractName": "TokenExchange",
  "abi": [
    {
      "inputs": [
        {
          "internalType": "contract FunToken",
          "name": "_funToken",
          "type": "address"
        },
        {
          "internalType": "uint256",
          "name": "_exchangeRate",
          "type": "uint256"
        }
      ],
      "stateMutability": "nonpayable",
      "type": "constructor"
    },
    {
      "anonymous": false,
      "inputs": [
        {
          "indexed": true,
          "internalType": "address",
          "name": "seller",
          "type": "address"
        },
        {
          "indexed": true,
          "internalType": "address",
          "name": "buyer",
          "type": "address"
        },
        {
          "indexed": true,
          "internalType": "uint256",
          "name": "tokenAmount",
          "type": "uint256"
        },
        {
          "indexed": false,
          "internalType": "uint256",
          "name": "rate",
          "type": "uint256"
        }
      ],
      "name": "BoughtTokens",
      "type": "event"
    },
    {
      "anonymous": false,
      "inputs": [
        {
          "indexed": true,
          "internalType": "uint256",
          "name": "userBalance",
          "type": "uint256"
        }
      ],
      "name": "SenderTokenBalance",
      "type": "event"
    },
    {
      "anonymous": false,
      "inputs": [
        {
          "indexed": true,
          "internalType": "address",
          "name": "buyer",
          "type": "address"
        },
        {
          "indexed": true,
          "internalType": "address",
          "name": "seller",
          "type": "address"
        },
        {
          "indexed": true,
          "internalType": "uint256",
          "name": "tokenAmount",
          "type": "uint256"
        },
        {
          "indexed": false,
          "internalType": "uint256",
          "name": "rate",
          "type": "uint256"
        }
      ],
      "name": "SoldTokens",
      "type": "event"
    },
    {
      "inputs": [],
      "name": "exchangeRate",
      "outputs": [
        {
          "internalType": "uint256",
          "name": "",
          "type": "uint256"
        }
      ],
      "stateMutability": "view",
      "type": "function",
      "constant": true
    },
    {
      "inputs": [],
      "name": "funToken",
      "outputs": [
        {
          "internalType": "contract FunToken",
          "name": "",
          "type": "address"
        }
      ],
      "stateMutability": "view",
      "type": "function",
      "constant": true
    },
    {
      "inputs": [],
      "name": "buyTokens",
      "outputs": [],
      "stateMutability": "payable",
      "type": "function",
      "payable": true
    },
    {
      "inputs": [
        {
          "internalType": "uint256",
          "name": "tokens",
          "type": "uint256"
        }
      ],
      "name": "sellTokens",
      "outputs": [
        {
          "internalType": "uint256",
          "name": "",
          "type": "uint256"
        },
        {
          "internalType": "uint256",
          "name": "",
          "type": "uint256"
        },
        {
          "internalType": "uint256",
          "name": "",
          "type": "uint256"
        }
      ],
      "stateMutability": "nonpayable",
      "type": "function"
    }
  ],
  "bytecode": "0x608060405234801561001057600080fd5b50604051610a0a380380610a0a8339818101604052604081101561003357600080fd5b8101908080519060200190929190805190602001909291905050508060008190555081600160006101000a81548173ffffffffffffffffffffffffffffffffffffffff021916908373ffffffffffffffffffffffffffffffffffffffff1602179055505050610963806100a76000396000f3fe60806040526004361061003f5760003560e01c80633ba0b9a9146100445780636c11bcd31461006f578063845380a2146100cc578063d0febe4c1461010d575b600080fd5b34801561005057600080fd5b50610059610117565b6040518082815260200191505060405180910390f35b34801561007b57600080fd5b506100a86004803603602081101561009257600080fd5b810190808035906020019092919050505061011d565b60405180848152602001838152602001828152602001935050505060405180910390f35b3480156100d857600080fd5b506100e1610639565b604051808273ffffffffffffffffffffffffffffffffffffffff16815260200191505060405180910390f35b61011561065f565b005b60005481565b60008060008061012c85610896565b90506000670de0b6b3a7640000860290506000600160009054906101000a900473ffffffffffffffffffffffffffffffffffffffff1673ffffffffffffffffffffffffffffffffffffffff166370a08231336040518263ffffffff1660e01b8152600401808273ffffffffffffffffffffffffffffffffffffffff16815260200191505060206040518083038186803b1580156101c857600080fd5b505afa1580156101dc573d6000803e3d6000fd5b505050506040513d60208110156101f257600080fd5b810190808051906020019092919050505090508181101561025e576040517f08c379a000000000000000000000000000000000000000000000000000000000815260040180806020018281038252603c8152602001806108c3603c913960400191505060405180910390fd5b600030905060008173ffffffffffffffffffffffffffffffffffffffff16319050848110156102d8576040517f08c379a000000000000000000000000000000000000000000000000000000000815260040180806020018281038252602f8152602001806108ff602f913960400191505060405180910390fd5b6000600160009054906101000a900473ffffffffffffffffffffffffffffffffffffffff1673ffffffffffffffffffffffffffffffffffffffff166370a08231846040518263ffffffff1660e01b8152600401808273ffffffffffffffffffffffffffffffffffffffff16815260200191505060206040518083038186803b15801561036357600080fd5b505afa158015610377573d6000803e3d6000fd5b505050506040513d602081101561038d57600080fd5b81019080805190602001909291905050509050600160009054906101000a900473ffffffffffffffffffffffffffffffffffffffff1673ffffffffffffffffffffffffffffffffffffffff166323b872dd3385886040518463ffffffff1660e01b8152600401808473ffffffffffffffffffffffffffffffffffffffff1681526020018373ffffffffffffffffffffffffffffffffffffffff1681526020018281526020019350505050602060405180830381600087803b15801561045157600080fd5b505af1158015610465573d6000803e3d6000fd5b505050506040513d602081101561047b57600080fd5b8101908080519060200190929190505050503373ffffffffffffffffffffffffffffffffffffffff166108fc879081150290604051600060405180830381858888f193505050501580156104d3573d6000803e3d6000fd5b50843073ffffffffffffffffffffffffffffffffffffffff163373ffffffffffffffffffffffffffffffffffffffff167fe7389d532b859d9a593dc47eb053960ba114913f1f2816e9800afa9efd36f8116000546040518082815260200191505060405180910390a4600160009054906101000a900473ffffffffffffffffffffffffffffffffffffffff1673ffffffffffffffffffffffffffffffffffffffff166370a08231336040518263ffffffff1660e01b8152600401808273ffffffffffffffffffffffffffffffffffffffff16815260200191505060206040518083038186803b1580156105c557600080fd5b505afa1580156105d9573d6000803e3d6000fd5b505050506040513d60208110156105ef57600080fd5b81019080805190602001909291905050507fcfe02f4d4ab79a1904872157d666482f52d6ecb089ece09940eab875aee7d7b960405160405180910390a25050505050509193909250565b600160009054906101000a900473ffffffffffffffffffffffffffffffffffffffff1681565b600061066a346108b5565b9050600160009054906101000a900473ffffffffffffffffffffffffffffffffffffffff1673ffffffffffffffffffffffffffffffffffffffff1663a9059cbb33836040518363ffffffff1660e01b8152600401808373ffffffffffffffffffffffffffffffffffffffff16815260200182815260200192505050602060405180830381600087803b1580156106ff57600080fd5b505af1158015610713573d6000803e3d6000fd5b505050506040513d602081101561072957600080fd5b810190808051906020019092919050505050803373ffffffffffffffffffffffffffffffffffffffff163073ffffffffffffffffffffffffffffffffffffffff167f314898f27b62de59a1d7326707c74b7991036f43ed22658d064228c032e76fda6000546040518082815260200191505060405180910390a4600160009054906101000a900473ffffffffffffffffffffffffffffffffffffffff1673ffffffffffffffffffffffffffffffffffffffff166370a08231336040518263ffffffff1660e01b8152600401808273ffffffffffffffffffffffffffffffffffffffff16815260200191505060206040518083038186803b15801561082c57600080fd5b505afa158015610840573d6000803e3d6000fd5b505050506040513d602081101561085657600080fd5b81019080805190602001909291905050507fcfe02f4d4ab79a1904872157d666482f52d6ecb089ece09940eab875aee7d7b960405160405180910390a250565b6000670de0b6b3a764000060005483816108ac57fe5b04029050919050565b600080548202905091905056fe53656c6c657220747279696e6720746f2073656c6c206d6f726520746f6b656e73207468616e2061726520696e2073656c6c6572206163636f756e745472616e73616374696f6e206578636565647320546f6b656e45786368616e67652045746865722062616c616e6365a26469706673582212208632889d1e68360752690b323a3ecfe0727b00669f831be5b00c21e521950c7764736f6c63430007060033",
  "immutableReferences": {},
  "source": "//SPDX-License-Identifier: MIT\r\npragma solidity ^0.7.6;\r\n\r\nimport './FunToken.sol';\r\n\r\ncontract TokenExchange {\r\n  uint public exchangeRate;\r\n  FunToken public funToken;\r\n\r\n  event BoughtTokens(\r\n    address indexed seller,\r\n    address indexed buyer,\r\n    uint indexed tokenAmount,\r\n    uint rate\r\n  );\r\n\r\n  event SoldTokens(\r\n    address indexed buyer,\r\n    address indexed seller,\r\n    uint indexed tokenAmount,\r\n    uint rate\r\n  );\r\n\r\n  event SenderTokenBalance(\r\n    uint indexed userBalance\r\n  );\r\n\r\n  constructor(FunToken _funToken, uint _exchangeRate) {\r\n    exchangeRate = _exchangeRate;\r\n    funToken = _funToken;\r\n  }\r\n\r\n  function ethToTokens(uint _wei) private view returns(uint) {\r\n    return _wei * exchangeRate;\r\n  }\r\n\r\n  function tokensToWei(uint _tokens) private view returns(uint) {\r\n    return _tokens / exchangeRate * 10**18;\r\n  }\r\n\r\n  function buyTokens() public payable {\r\n    uint tokens = ethToTokens(msg.value);\r\n    funToken.transfer(msg.sender, tokens);\r\n    emit BoughtTokens(address(this), msg.sender, tokens, exchangeRate);\r\n    emit SenderTokenBalance(funToken.balanceOf(msg.sender));\r\n  }\r\n\r\n  function sellTokens(uint tokens) public returns (uint, uint, uint) {\r\n    uint ethInWei = tokensToWei(tokens);\r\n    uint tokensInWei = tokens*10**18;\r\n    uint sellerBalance = funToken.balanceOf(msg.sender);\r\n\r\n    require(sellerBalance >= tokensInWei, 'Seller trying to sell more tokens than are in seller account');\r\n\r\n    address addr = address(this);\r\n    uint contractBalance = addr.balance;\r\n\r\n    require(contractBalance >= ethInWei, 'Transaction exceeds TokenExchange Ether balance');\r\n\r\n\r\n    uint contractTokens = funToken.balanceOf(addr);\r\n\r\n    // return (tokensInWei, sellerBalance, contractTokens);\r\n\r\n\r\n    //transfer tokens from msg.sender to tokenExchange contract\r\n    funToken.transferFrom(msg.sender, addr, tokensInWei);\r\n\r\n    // uint contractTokens = funToken.balanceOf(msg.sender);\r\n    // return contractTokens;\r\n\r\n    // transfer eth from tokenExchange contract to msg.sender\r\n    msg.sender.transfer(ethInWei);\r\n\r\n    emit SoldTokens(msg.sender, address(this), tokensInWei, exchangeRate);\r\n    emit SenderTokenBalance(funToken.balanceOf(msg.sender));\r\n  }\r\n}\r\n",
  "sourcePath": "C:/Users/jdink/Desktop/development/simple_erc20_exchange/contracts/TokenExchange.sol",
  "compiler": {
    "name": "solc",
    "version": "0.7.6+commit.7338295f.Emscripten.clang"
  },
  "schemaVersion": "3.3.3",
  "updatedAt": "2021-02-05T06:40:10.745Z",
  "networkType": "ethereum",
  "devdoc": {
    "kind": "dev",
    "methods": {},
    "version": 1
  },
  "userdoc": {
    "kind": "user",
    "methods": {},
    "version": 1
  }
}