{
  "contractName": "TokenExchange",
  "abi": [
    {
      "inputs": [
        {
          "internalType": "contract FunToken",
          "name": "_funToken",
          "type": "address"
        },
        {
          "internalType": "uint256",
          "name": "_exchangeRate",
          "type": "uint256"
        }
      ],
      "stateMutability": "nonpayable",
      "type": "constructor"
    },
    {
      "anonymous": false,
      "inputs": [
        {
          "indexed": false,
          "internalType": "address",
          "name": "seller",
          "type": "address"
        },
        {
          "indexed": true,
          "internalType": "address",
          "name": "buyer",
          "type": "address"
        },
        {
          "indexed": true,
          "internalType": "uint256",
          "name": "tokenAmount",
          "type": "uint256"
        },
        {
          "indexed": true,
          "internalType": "uint256",
          "name": "rate",
          "type": "uint256"
        }
      ],
      "name": "BoughtTokens",
      "type": "event"
    },
    {
      "inputs": [],
      "name": "exchangeRate",
      "outputs": [
        {
          "internalType": "uint256",
          "name": "",
          "type": "uint256"
        }
      ],
      "stateMutability": "view",
      "type": "function",
      "constant": true
    },
    {
      "inputs": [],
      "name": "funToken",
      "outputs": [
        {
          "internalType": "contract FunToken",
          "name": "",
          "type": "address"
        }
      ],
      "stateMutability": "view",
      "type": "function",
      "constant": true
    },
    {
      "inputs": [],
      "name": "buyTokens",
      "outputs": [],
      "stateMutability": "payable",
      "type": "function",
      "payable": true
    }
  ],
  "bytecode": "0x608060405234801561001057600080fd5b506040516103173803806103178339818101604052604081101561003357600080fd5b8101908080519060200190929190805190602001909291905050508060008190555081600160006101000a81548173ffffffffffffffffffffffffffffffffffffffff021916908373ffffffffffffffffffffffffffffffffffffffff1602179055505050610270806100a76000396000f3fe6080604052600436106100345760003560e01c80633ba0b9a914610039578063845380a214610064578063d0febe4c146100a5575b600080fd5b34801561004557600080fd5b5061004e6100af565b6040518082815260200191505060405180910390f35b34801561007057600080fd5b506100796100b5565b604051808273ffffffffffffffffffffffffffffffffffffffff16815260200191505060405180910390f35b6100ad6100db565b005b60005481565b600160009054906101000a900473ffffffffffffffffffffffffffffffffffffffff1681565b60006100e634610222565b9050600160009054906101000a900473ffffffffffffffffffffffffffffffffffffffff1673ffffffffffffffffffffffffffffffffffffffff1663a9059cbb33836040518363ffffffff1660e01b8152600401808373ffffffffffffffffffffffffffffffffffffffff16815260200182815260200192505050602060405180830381600087803b15801561017b57600080fd5b505af115801561018f573d6000803e3d6000fd5b505050506040513d60208110156101a557600080fd5b810190808051906020019092919050505050600054813373ffffffffffffffffffffffffffffffffffffffff167f314898f27b62de59a1d7326707c74b7991036f43ed22658d064228c032e76fda30604051808273ffffffffffffffffffffffffffffffffffffffff16815260200191505060405180910390a450565b6000670de0b6b3a7640000600054830202905091905056fea264697066735822122092bc02060eb5ae31b02129dff2b7a8e804a611128cc85793282065556da947e564736f6c63430007060033",
  "immutableReferences": {},
  "source": "pragma solidity ^0.7.6;\r\n\r\nimport './FunToken.sol';\r\n\r\ncontract TokenExchange {\r\n  uint public exchangeRate;\r\n  FunToken public funToken;\r\n\r\n  event BoughtTokens(\r\n    address seller,\r\n    address indexed buyer,\r\n    uint indexed tokenAmount,\r\n    uint indexed rate\r\n  );\r\n\r\n  constructor(FunToken _funToken, uint _exchangeRate) {\r\n    exchangeRate = _exchangeRate;\r\n    funToken = _funToken;\r\n  }\r\n\r\n  function ethToTokens(uint _eth) private view returns(uint) {\r\n    return _eth * exchangeRate * 10**18;\r\n  }\r\n\r\n  function buyTokens() public payable {\r\n    uint tokens = ethToTokens(msg.value);\r\n    funToken.transfer(msg.sender, tokens);\r\n    emit BoughtTokens(address(this), msg.sender, tokens, exchangeRate);\r\n  }\r\n}\r\n\r\n// t = 100 * 1\r\n// 100 = 100 * 1\r\n// 100/eR = e\r\n// public buyTokens\r\n// input: eth value\r\n// 1. convert eth to token amount\r\n// 2. funToken.transfer(msg.sender, tokens)\r\n// 3. emit event(from address, to address, token amount, exchange rate)\r\n\r\n// public sellTokens\r\n\r\n// event\r\n// Bought\r\n//   amount\r\n//   buyer msg.sender\r\n//   buyerNewBalance\r\n",
  "sourcePath": "C:/Users/jdink/Desktop/development/simple_erc20_exchange/contracts/TokenExchange.sol",
  "compiler": {
    "name": "solc",
    "version": "0.7.6+commit.7338295f.Emscripten.clang"
  },
  "schemaVersion": "3.3.3",
  "updatedAt": "2020-12-31T06:14:25.707Z",
  "networkType": "ethereum",
  "devdoc": {
    "kind": "dev",
    "methods": {},
    "version": 1
  },
  "userdoc": {
    "kind": "user",
    "methods": {},
    "version": 1
  }
}