{
  "contractName": "TokenExchange",
  "abi": [
    {
      "inputs": [
        {
          "internalType": "contract FunToken",
          "name": "_funToken",
          "type": "address"
        },
        {
          "internalType": "uint256",
          "name": "_exchangeRate",
          "type": "uint256"
        }
      ],
      "stateMutability": "nonpayable",
      "type": "constructor"
    },
    {
      "inputs": [],
      "name": "exchangeRate",
      "outputs": [
        {
          "internalType": "uint256",
          "name": "",
          "type": "uint256"
        }
      ],
      "stateMutability": "view",
      "type": "function",
      "constant": true
    }
  ],
  "bytecode": "0x608060405234801561001057600080fd5b5060405161012b38038061012b8339818101604052604081101561003357600080fd5b8101908080519060200190929190805190602001909291905050508060008190555081600160006101000a81548173ffffffffffffffffffffffffffffffffffffffff021916908373ffffffffffffffffffffffffffffffffffffffff16021790555050506085806100a66000396000f3fe6080604052348015600f57600080fd5b506004361060285760003560e01c80633ba0b9a914602d575b600080fd5b60336049565b6040518082815260200191505060405180910390f35b6000548156fea2646970667358221220d6bcce38579832a170459c0ea99256b4b299884a7946fb71408710d904d72b9164736f6c63430007060033",
  "immutableReferences": {},
  "source": "pragma solidity ^0.7.6;\r\n\r\nimport './FunToken.sol';\r\n\r\ncontract TokenExchange {\r\n  uint public exchangeRate;\r\n  FunToken funToken;\r\n\r\n  constructor(FunToken _funToken, uint _exchangeRate) {\r\n    exchangeRate = _exchangeRate;\r\n    funToken = _funToken;\r\n  }\r\n}\r\n\r\n// state variables\r\n// uint public exchangeRate\r\n// FunToken funToken\r\n//\r\n// functions\r\n// public buyTokens\r\n//\r\n//\r\n// public sellTokens\r\n//\r\n// event\r\n// Bought\r\n//   amount\r\n//   buyer msg.sender\r\n//   buyerNewBalance\r\n",
  "sourcePath": "C:/Users/jdink/Desktop/development/simple_erc20_exchange/contracts/TokenExchange.sol",
  "compiler": {
    "name": "solc",
    "version": "0.7.6+commit.7338295f.Emscripten.clang"
  },
  "schemaVersion": "3.3.3",
  "updatedAt": "2020-12-30T05:12:00.480Z",
  "networkType": "ethereum",
  "devdoc": {
    "kind": "dev",
    "methods": {},
    "version": 1
  },
  "userdoc": {
    "kind": "user",
    "methods": {},
    "version": 1
  }
}